:100000000C945D000C9448050C9421050C9485001B
:100010000C9485000C9485000C9485000C9485004C
:100020000C9485000C9485000C9485000C9485003C
:100030000C9485000C9485000C9485000C9485002C
:100040000C94D7040C9485000C94A5040C947F04A4
:100050000C9485000C9485000C9485000C9485000C
:100060000C946F050C94850000000000240027000C
:100070002A0000000000250028002B0004040404CE
:100080000404040402020202020203030303030342
:10009000010204081020408001020408102001021F
:1000A00004081020000000080002010000030407FB
:1000B00000000000000000009D0611241FBECFEFCD
:1000C000D8E0DEBFCDBF11E0A0E0B1E0EEE1F5E1A8
:1000D00002C005900D92A833B107D9F722E0A8E33A
:1000E000B1E001C01D92A33AB207E1F710E0CDE5FF
:1000F000D0E004C02197FE010E94820ACC35D107CE
:10010000C9F70E94E5060C948D0A0C94000090E05B
:10011000FC01EC55FF4F2491FC01E057FF4F349157
:10012000FC01E458FF4FE491EE23B1F1222339F1B1
:10013000233091F038F42130A9F0223001F584B554
:100140008F7D12C0273091F02830A1F02430B9F40F
:10015000809180008F7D03C0809180008F77809395
:1001600080000DC084B58F7784BD09C08091B00038
:100170008F7703C08091B0008F7D8093B000F0E056
:10018000EE0FFF1FEE58FF4FA591B4918FB7F89473
:10019000EC913E2B3C938FBF0895CF92DF92EF926C
:1001A000FF920F931F93CF93DF936C017A018B0122
:1001B000C0E0D0E0CE15DF0589F0D8016D918D014A
:1001C000D601ED91FC910190F081E02DC6010995D9
:1001D000892B11F47E0102C02196ECCFC701DF917B
:1001E000CF911F910F91FF90EF90DF90CF900895E6
:1001F000FC01538D448D252F30E0842F90E0821B2D
:10020000930B541710F0CF96089501970895FC01B1
:10021000918D828D981761F0828DDF01A80FB11D3D
:100220005D968C91928D9F5F9F73928F90E0089561
:100230008FEF9FEF0895FC01918D828D981731F01B
:10024000828DE80FF11D858D90E008958FEF9FEF6F
:100250000895FC01918D228D892F90E0805C9F4F45
:10026000821B91098F73992708958EEE91E00E9469
:10027000290121E0892B09F420E0822F0895FC0157
:10028000848DDF01A80FB11DA35ABF4F2C91848D1F
:1002900090E001968F739927848FA689B7892C9354
:1002A000A089B1898C9180648C93938D848D9813EF
:1002B00006C00288F389E02D80818F7D80830895B8
:1002C000EF92FF920F931F93CF93DF93EC0181E0A6
:1002D000888F9B8D8C8D981305C0E889F989808162
:1002E00085FD24C0F62E0B8D10E00F5F1F4F0F739E
:1002F0001127E02E8C8DE8120CC00FB607FCFACF48
:10030000E889F989808185FFF5CFCE010E943F0100
:10031000F1CF8B8DFE01E80FF11DE35AFF4FF08204
:100320000B8FEA89FB898081806207C0EE89FF8993
:100330006083E889F98980818064808381E090E02E
:10034000DF91CF911F910F91FF90EF900895CF9380
:10035000DF93EC01888D8823C9F0EA89FB898081CD
:1003600085FD05C0A889B9898C9186FD0FC00FB69F
:1003700007FCF5CF808185FFF2CFA889B9898C91E0
:1003800085FFEDCFCE010E943F01E7CFDF91CF91F6
:10039000089580E090E0892B29F00E9435018111B9
:1003A0000C94000008953FB7F8948091D301909188
:1003B000D401A091D501B091D60126B5A89B05C066
:1003C0002F3F19F00196A11DB11D3FBFBA2FA92FD4
:1003D000982F8827820F911DA11DB11DBC01CD0151
:1003E00042E0660F771F881F991F4A95D1F708953D
:1003F0008091400181110EC00E94D30160933C01A5
:1004000070933D0180933E0190933F0181E0809382
:1004100040010CC00E94D3016093380170933901F0
:1004200080933A0190933B011092400180913C01EE
:1004300090913D01A0913E01B0913F014091380162
:100440005091390160913A0170913B01841B950BE9
:10045000A60BB70B181619061A061B068CF480910A
:100460003C0190913D01A0913E01B0913F0140912E
:1004700038015091390160913A0170913B0110C0EF
:100480008091380190913901A0913A01B0913B01DE
:1004900040913C0150913D0160913E0170913F01BE
:1004A000841B950BA60BB70B8093EA019093EB018D
:1004B000A093EC01B093ED0108958F929F92AF92BB
:1004C000BF92CF92DF92EF92FF926B017C010E946C
:1004D000D3014B015C01C114D104E104F104F1F03A
:1004E0000E94D301DC01CB0188199909AA09BB0933
:1004F000883E9340A105B10570F321E0C21AD108EE
:10050000E108F10888EE880E83E0981EA11CB11C5A
:10051000C114D104E104F10419F7DDCFFF90EF908D
:10052000DF90CF90BF90AF909F908F9008950895E7
:1005300085ED8093BC008091BC0084FDFCCF1092BF
:10054000D901089540918501262F30E0240F311DF7
:1005500021323105DCF42091D9012430C9F4FC01A9
:1005600080E090E0861758F4309185012191DC01FC
:10057000AD59BE4FA30FB11D2C930196F3CF8091BF
:100580008501680F6093850180E0089581E00895FA
:1005900082E00895089581E090E03091DD0120919E
:1005A000DC01321710F480E090E09195819591097B
:1005B00008958091DD019091DC01891730F48F5FFF
:1005C0008093DD0180E090E008958FEF9FEF089524
:1005D0008091DC0190E02091DD01821B910908955A
:1005E000CF92DF92EF92FF920F931F93CF93DF93FF
:1005F0007C01262F972F8A0180916201882391F038
:10060000C62FD72F6E01C40ED51ECC15DD0571F097
:100610006991D701ED91FC910190F081E02DC70126
:100620000995F3CF642F822F0E94A202C801DF91A7
:10063000CF911F910F91FF90EF90DF90CF90089591
:10064000CF93DF931F92CDB7DEB76983209162010C
:100650002223D1F02091DA01203240F021E030E075
:10066000FC013383228380E090E015C08091DB01A0
:10067000E82FF0E0EE5BFE4F998190838F5F8093CF
:10068000DB018093DA0105C061E0CE0101960E9492
:10069000A20281E090E00F90DF91CF910895CF9377
:1006A000FC01C48121E020936201C09341011092BA
:1006B000DB011092DA018385682B8BE892E00E94BF
:1006C00020038091DA01813208F046C09091D9016F
:1006D0009111FCCF92E09093D90191E09093D801D1
:1006E0009FEF9093AA011092CC018093CB01A2E4DA
:1006F000B1E02BEA31E0F9019E2F921B981718F414
:100700009D919193F9CF1092CD018091CD01CC0FA5
:10071000C82BC093CD018091D701813061F4109234
:10072000D7018091CD018093BB008091BC0083FDF7
:10073000F8CF85EC01C085EE8093BC008091D90193
:100740008230E1F38091AA018F3F31F08091AA01BC
:10075000803211F08091AA011092DB011092DA012F
:1007600010926201CF9108950F931F93CF938C0144
:10077000C62F0E944F036C2F6460C8010E944F0374
:100780006C2F6B7FC8010E944F0383EC90E00197B0
:10079000F1F7CF911F910F910895FF920F931F933F
:1007A000CF93DF931F92CDB7DEB78C01F62E962F35
:1007B000907F692F642BC80149830E94B40380E1B4
:1007C000F89EB00111244981642BC8010F90DF917C
:1007D000CF911F910F91FF900C94B40341E00E94C0
:1007E000CD0381E090E00895089580E090E00895C1
:1007F0004F925F926F927F92EF92FF920F931F93AF
:10080000CF93DF93CDB7DEB7A1970FB6F894DEBFD5
:100810000FBECDBF7C01FA01CB0119A2223008F432
:100820002AE08E010F5D1F4F422E512C612C712C3E
:10083000BF01A30192010E94600AF901CA0101509F
:1008400011096A3014F4605D01C0695CD8016C93D1
:10085000232B242B252B61F70115110591F0F801AD
:1008600001900020E9F73197AF01401B510BD701F0
:10087000ED91FC910280F381E02DB801C70109954B
:1008800002C080E090E0A1960FB6F894DEBF0FBEE4
:10089000CDBFDF91CF911F910F91FF90EF907F908F
:1008A0006F905F904F900895CF92DF92EF92FF92FA
:1008B0000F931F93CF93DF93EC016A017B01E881D3
:1008C000F9810190F081E02D6DE209958C014427BA
:1008D0005527BA014C195D096E097F092AE0CE013E
:1008E0000E94F803800F911FDF91CF911F910F910C
:1008F000FF90EF90DF90CF9008950E94880A1F929A
:100900000F920FB60F9211242F933F934F935F9343
:100910006F937F938F939F93AF93BF93EF93FF93C7
:100920008EEE91E00E943F01FF91EF91BF91AF9158
:100930009F918F917F916F915F914F913F912F91F7
:100940000F900FBE0F901F9018951F920F920FB629
:100950000F9211242F938F939F93EF93FF93E09126
:10096000FE01F091FF018081E0910402F091050207
:1009700082FD12C09081809107028F5F8F7320915A
:100980000802821751F0E0910702F0E0E251FE4FB9
:10099000958F8093070201C08081FF91EF919F9115
:1009A0008F912F910F900FBE0F901F9018951F924F
:1009B0000F920FB60F9211242F933F938F939F9313
:1009C000AF93BF938091CF019091D001A091D101BD
:1009D000B091D2013091CE0123E0230F2D3720F4C6
:1009E0000196A11DB11D05C026E8230F0296A11D89
:1009F000B11D2093CE018093CF019093D001A0939D
:100A0000D101B093D2018091D3019091D401A091F2
:100A1000D501B091D6010196A11DB11D8093D301DE
:100A20009093D401A093D501B093D601BF91AF911B
:100A30009F918F913F912F910F900FBE0F901F901C
:100A400018951F920F920FB60F9211242F933F9378
:100A50004F935F936F937F938F939F93AF93BF93C6
:100A6000EF93FF93E0910201F09103010995FF914B
:100A7000EF91BF91AF919F918F917F916F915F9116
:100A80004F913F912F910F900FBE0F901F9018958F
:100A90001F920F920FB60F9211242F933F934F93F3
:100AA0005F936F937F938F939F93AF93BF93EF93D6
:100AB000FF93E0910001F09101010995FF91EF9101
:100AC000BF91AF919F918F917F916F915F914F9166
:100AD0003F912F910F900FBE0F901F9018951F926E
:100AE0000F920FB60F9211242F933F934F935F9362
:100AF0006F937F938F939F93AF93BF93EF93FF93E6
:100B00008091B900887F803609F49CC068F58832EE
:100B100009F45BC090F4803109F454C038F48823A0
:100B200009F4F6C0883009F44DC0F6C0883109F4E4
:100B30004CC0803209F45DC0EFC0803409F468C055
:100B400048F4803309F455C0883309F0E5C0809338
:100B5000AA01D8C0803509F44FC0883509F45DC0BA
:100B6000883409F0D9C0D6C0883909F4C7C0A8F4C0
:100B7000883709F467C038F4883609F463C08037D1
:100B800009F460C0C9C0883809F4B8C0803909F4D4
:100B90005FC0803809F0C0C05BC0803B09F486C0EC
:100BA00038F4803A09F466C0883A09F47FC0B4C0CA
:100BB000803C09F4A7C0883C09F4A4C0883B09F430
:100BC0008AC0AAC08091CD0110C09091CC018091C3
:100BD000CB01981770F5E091CC0181E08E0F8093E6
:100BE000CC01F0E0E555FE4F80818093BB0085ECA1
:100BF00086C08093AA018EC0E091CC0181E08E0F67
:100C00008093CC018091BB00F0E0E555FE4F8083DE
:100C10009091CC018091CB016EC0E091CC0181E03C
:100C20008E0F8093CC018091BB00F0E0E555FE4F24
:100C300080838091D80181116DC081E08093D701BC
:100C400084EA61C083E08093D9011092A901CFCFDB
:100C50008091A901803208F051C0E091A90181E0A2
:100C60008E0F8093A9018091BB00F0E0E757FE4F03
:100C70008083BDCF85EC8093BC001092D901809118
:100C8000A901803230F4E091A901F0E0E757FE4F6E
:100C900010826091A90170E0E0918701F0918801D4
:100CA00089E891E009951092A90136C084E080930B
:100CB000D9011092860110928501E0918301F09193
:100CC0008401099580918501811105C081E080939F
:100CD000850110926301E091860181E08E0F80937F
:100CE0008601F0E0ED59FE4F80818093BB0090912A
:100CF000860180918501981708F479CF85E8809363
:100D0000BC000AC085EC8093BC001092D90104C0DD
:100D10001092AA010E949802FF91EF91BF91AF91AA
:100D20009F918F917F916F915F914F913F912F9103
:100D30000F900FBE0F901F901895EEEEF1E013820A
:100D4000128288EE93E0A0E0B0E084839583A683CE
:100D5000B78328E031E03183208325EC30E035870C
:100D6000248724EC30E03787268720EC30E0318B75
:100D7000208B21EC30E0338B228B22EC30E0358B62
:100D8000248B26EC30E0378B268B118E128E138E3F
:100D9000148EEBE8F2E01382128284839583A6839B
:100DA000B7838AE191E091838083E7E9F2E01382DF
:100DB00012828CE291E0918380838FE3848380E1CF
:100DC000818782E0828713860895789484B5826053
:100DD00084BD84B5816084BD85B5826085BD85B5DF
:100DE000816085BD80916E00816080936E0010925D
:100DF00081008091810082608093810080918100D8
:100E00008160809381008091800081608093800068
:100E10008091B10084608093B1008091B0008160C6
:100E20008093B00080917A00846080937A008091F2
:100E30007A00826080937A0080917A00816080934A
:100E40007A0080917A00806880937A001092C100C5
:100E5000E3E9F0E02491EFE7F0E084918823C1F02A
:100E600090E0880F991FFC01E859FF4FC591D4917C
:100E7000FC01EE58FF4FA591B4919FB7F8943881CB
:100E8000822F809583238883EC91E22BEC939FBF84
:100E900088EF91E0909303018093020180916900B3
:100EA0008C6080936900E99AE091FE01F091FF0166
:100EB00082E08083E091FA01F091FB011082E091E1
:100EC000FC01F091FD0180E1808310920602E09127
:100ED0000202F091030286E08083E0910002F0912B
:100EE0000102808180618083E0910002F091010223
:100EF000808188608083E0910002F091010280810E
:100F000080688083E0910002F091010280818F7DF2
:100F100080831092DD011092DC011092DB011092AF
:100F2000DA011092D90181E08093D8011092D701A3
:100F300082E10E94870083E10E9487008091B900CE
:100F40008E7F8093B9008091B9008D7F8093B90026
:100F500088E48093B80085E48093BC0010929C02E2
:100F60008091A102823018F098E090939C028093C7
:100F70009F0262E370E080E090E00E945D02609179
:100F8000A20287E992E00E944F0368EE73E080E0DE
:100F900090E00E945D0260E387E992E00E94B40362
:100FA000CBE4D6E4CE010197F1F760E387E992E064
:100FB0000E94B4032197F1F760E387E992E00E9471
:100FC000B40383E592E00197F1F760E287E992E0EC
:100FD0000E94B40360919C02606240E087E992E065
:100FE0000E94CD0384E080939D0240E06CE087E99D
:100FF00092E00E94CD0340E061E087E992E00E9428
:10100000CD03CBE3DFE1CE010197F1F782E08093DE
:101010009E0240E066E087E992E00E94CD0340E056
:1010200062E087E992E00E94CD03CE010197F1F7DB
:1010300088E08093A20260E087E992E00E944F037B
:101040002AE048E050E060E070E087E992E00E942A
:10105000F80368EE73E080E090E00E945D0240E0FB
:1010600061E087E992E00E94CD032197F1F7CBE39D
:10107000DFE16091EA017091EB018091EC019091C8
:10108000ED016093E6017093E7018093E80190938E
:10109000E9010091E2011091E3012091E401309116
:1010A000E501601771078207930709F463C00E9486
:1010B00067099B01AC0160E070E68AE697E40E9454
:1010C000BD0820E030E040E651E40E94F3090E94B0
:1010D0002F09AB01BC014093DE015093DF01609307
:1010E000E0017093E10177FF05C08EEE91E00E9470
:1010F000540405C02AE08EEE91E00E94F80342E01D
:1011000050E064E371E08EEE91E00E94CD0040E09B
:1011100062E087E992E00E94CD03CE010197F1F7EA
:101120004091DE015091DF016091E0017091E10199
:1011300077FF05C087E992E00E94540405C02AE0C9
:1011400087E992E00E94F8038091E6019091E7011F
:10115000A091E801B091E9018093E2019093E3014D
:10116000A093E401B093E50164E670E080E090E0D4
:101170000E945D020E94C9017CCF0E94D1080C949C
:10118000B9090E94B20958F00E94AB0940F029F455
:101190005F3F29F00C94A20951110C94ED090C94B5
:1011A000A8090E94CA0968F39923B1F3552391F362
:1011B000951B550BBB27AA2762177307840738F0C6
:1011C0009F5F5F4F220F331F441FAA1FA9F335D023
:1011D0000E2E3AF0E0E832D091505040E695001CD7
:1011E000CAF72BD0FE2F29D0660F771F881FBB1F91
:1011F000261737074807AB07B0E809F0BB0B802D6F
:10120000BF01FF2793585F4F3AF09E3F510578F09A
:101210000C94A2090C94ED095F3FE4F3983ED4F3DB
:10122000869577956795B795F7959F5FC9F7880F6E
:10123000911D9695879597F90895E1E0660F771FC0
:10124000881FBB1F621773078407BA0720F0621B51
:10125000730B840BBA0BEE1F88F7E09508950E947C
:1012600036096894B1110C94ED0908950E94D209D1
:1012700088F09F5798F0B92F9927B751B0F0E1F057
:10128000660F771F881F991F1AF0BA95C9F714C007
:10129000B13091F00E94EC09B1E008950C94EC0992
:1012A000672F782F8827B85F39F0B93FCCF3869540
:1012B00077956795B395D9F73EF49095809570959D
:1012C00061957F4F8F4F9F4F0895E89409C097FB1A
:1012D0003EF490958095709561957F4F8F4F9F4F0D
:1012E0009923A9F0F92F96E9BB279395F695879551
:1012F00077956795B795F111F8CFFAF4BB0F11F414
:1013000060FF1BC06F5F7F4F8F4F9F4F16C08823BA
:1013100011F096E911C0772321F09EE8872F762FF0
:1013200005C0662371F096E8862F70E060E02AF031
:101330009A95660F771F881FDAF7880F969587951D
:1013400097F9089597F99F6780E870E060E0089545
:101350009FEF80EC089500240A94161617061806CD
:101360000906089500240A941216130614060506A9
:101370000895092E0394000C11F4882352F0BB0F3A
:1013800040F4BF2B11F460FF04C06F5F7F4F8F4F9D
:101390009F4F089557FD9058440F551F59F05F3FD8
:1013A00071F04795880F97FB991F61F09F3F79F087
:1013B00087950895121613061406551FF2CF469509
:1013C000F1DF08C0161617061806991FF1CF86958B
:1013D0007105610508940895E894BB27662777276F
:1013E000CB0197F908950E94060A0C94B9090E944E
:1013F000AB0938F00E94B20920F0952311F00C944B
:10140000A2090C94A80911240C94ED090E94CA09A0
:1014100070F3959FC1F3950F50E0551F629FF00147
:10142000729FBB27F00DB11D639FAA27F00DB11D60
:10143000AA1F649F6627B00DA11D661F829F2227E9
:10144000B00DA11D621F739FB00DA11D621F839F70
:10145000A00D611D221F749F3327A00D611D231F46
:10146000849F600D211D822F762F6A2F11249F5794
:1014700050409AF0F1F088234AF0EE0FFF1FBB1F97
:10148000661F771F881F91505040A9F79E3F510556
:1014900080F00C94A2090C94ED095F3FE4F3983EB0
:1014A000D4F3869577956795B795F795E7959F5F00
:1014B000C1F7FE2B880F911D9695879597F9089592
:1014C000A1E21A2EAA1BBB1BFD010DC0AA1FBB1F48
:1014D000EE1FFF1FA217B307E407F50720F0A21BBA
:1014E000B30BE40BF50B661F771F881F991F1A9427
:1014F00069F760957095809590959B01AC01BD0151
:10150000CF010895EE0FFF1F0590F491E02D09948F
:0E15100081E090E0F8940C948D0AF894FFCFDF
:10151E0097029702000000006001CD00F800A701BD
:10152E00290107011B01000000002003F002F50352
:10153E00CA02E802D902CB0200000000EE03CD0081
:08154E00F503F4030D0A00008F
:107E0000112484B714BE81FFF0D085E080938100F7
:107E100082E08093C00088E18093C10086E0809377
:107E2000C20080E18093C4008EE0C9D0259A86E02C
:107E300020E33CEF91E0309385002093840096BBD3
:107E4000B09BFECF1D9AA8958150A9F7CC24DD24C4
:107E500088248394B5E0AB2EA1E19A2EF3E0BF2EE7
:107E6000A2D0813461F49FD0082FAFD0023811F036
:107E7000013811F484E001C083E08DD089C08234E0
:107E800011F484E103C0853419F485E0A6D080C0E4
:107E9000853579F488D0E82EFF2485D0082F10E0AE
:107EA000102F00270E291F29000F111F8ED06801E7
:107EB0006FC0863521F484E090D080E0DECF843638
:107EC00009F040C070D06FD0082F6DD080E0C81688
:107ED00080E7D80618F4F601B7BEE895C0E0D1E017
:107EE00062D089930C17E1F7F0E0CF16F0E7DF06D8
:107EF00018F0F601B7BEE89568D007B600FCFDCFD4
:107F0000A601A0E0B1E02C9130E011968C91119780
:107F100090E0982F8827822B932B1296FA010C0160
:107F200087BEE89511244E5F5F4FF1E0A038BF0790
:107F300051F7F601A7BEE89507B600FCFDCF97BE46
:107F4000E89526C08437B1F42ED02DD0F82E2BD052
:107F50003CD0F601EF2C8F010F5F1F4F84911BD097
:107F6000EA94F801C1F70894C11CD11CFA94CF0C13
:107F7000D11C0EC0853739F428D08EE10CD085E9AC
:107F80000AD08FE07ACF813511F488E018D01DD067
:107F900080E101D065CF982F8091C00085FFFCCF94
:107FA0009093C60008958091C00087FFFCCF809118
:107FB000C00084FD01C0A8958091C6000895E0E648
:107FC000F0E098E1908380830895EDDF803219F02E
:107FD00088E0F5DFFFCF84E1DECF1F93182FE3DFCA
:107FE0001150E9F7F2DF1F91089580E0E8DFEE27F6
:047FF000FF270994CA
:027FFE00040479
:0400000300007E007B
:00000001FF
