:100000000C945C000C946E000C946E000C946E00CA
:100010000C946E000C946E000C946E000C946E00A8
:100020000C946E000C946E000C945D010C946E00A8
:100030000C946E000C940C010C946E000C946E00E9
:100040000C94C2000C946E000C946E000C946E0024
:100050000C946E000C946E000C946E000C946E0068
:100060000C946E000C946E00000000002500280027
:100070002B000000000023002600290004040404D3
:100080000404040402020202020203030303030342
:10009000010204081020408001020408102001021F
:1000A00004081020000000080002010000030407FB
:1000B000000000000000000011241FBECFEFD8E0B8
:1000C000DEBFCDBF21E0A0E0B1E001C01D92A031B4
:1000D000B207E1F70E9499010C9456020C940000BB
:1000E000833081F028F4813099F08230A1F00895B6
:1000F0008730A9F08830B9F08430D1F48091800045
:100100008F7D03C0809180008F7780938000089559
:1001100084B58F7702C084B58F7D84BD08958091AA
:10012000B0008F7703C08091B0008F7D8093B000C6
:100130000895CF93DF93282F30E0F901EC55FF4F5E
:100140008491F901E057FF4FD491F901E458FF4F32
:10015000C491CC2391F081110E947000EC2FF0E04B
:10016000EE0FFF1FEE58FF4FA591B491EC91ED23D8
:1001700081E090E021F480E002C080E090E0DF9137
:10018000CF9108951F920F920FB60F9211242F93C3
:100190003F938F939F93AF93BF9380910C01909166
:1001A0000D01A0910E01B0910F0130910B0123E0E0
:1001B000230F2D3720F40196A11DB11D05C026E89F
:1001C000230F0296A11DB11D20930B0180930C01FA
:1001D00090930D01A0930E01B0930F018091070140
:1001E00090910801A0910901B0910A010196A11D09
:1001F000B11D8093070190930801A0930901B0936A
:100200000A01BF91AF919F918F913F912F910F90D4
:100210000FBE0F901F9018951F920F920FB60F925E
:1002200011240F931F932F933F934F935F936F93DB
:100230007F938F939F93AF93BF93CF93DF93EF936E
:10024000FF9387E00E9499008C01EBEAF0E0849133
:10025000E7E9F0E0D491E3E8F0E0C491CC23C1F009
:1002600081110E947000EC2FF0E0EE0FFF1FE859A3
:10027000FF4FA591B4918FB7F894012B29F09C9171
:10028000ED2FE095E92302C0EC91ED2BEC938FBFAD
:10029000FF91EF91DF91CF91BF91AF919F918F919E
:1002A0007F916F915F914F913F912F911F910F918E
:1002B0000F900FBE0F901F9018951F920F920FB6C0
:1002C0000F9211242F933F934F935F936F937F93DC
:1002D0008F939F93AF93BF93EF93FF9388E00E9418
:1002E0009900019751F48091860090918700909336
:1002F00004018093030183E009C0809186009091FE
:100300008700909306018093050183E48093810028
:10031000FF91EF91BF91AF919F918F917F916F91DD
:100320005F914F913F912F910F900FBE0F901F90B3
:100330001895789484B5826084BD84B5816084BD4D
:1003400085B5826085BD85B5816085BD80916E0073
:10035000816080936E0010928100809181008260A4
:1003600080938100809181008160809381008091E1
:1003700080008160809380008091B10084608093D0
:10038000B1008091B00081608093B00080917A00CC
:10039000846080937A0080917A00826080937A00F2
:1003A00080917A00816080937A0080917A008068E1
:1003B00080937A001092C10080EE8AB914B810922E
:1003C000800083E4809381001092820081E2809318
:1003D0006F0081EA84BD82E085BD10926E0016BC7C
:1003E000C0E0D0E020910501309106018091030129
:1003F000909104012817390749F0809105019091E7
:100400000601209103013091040108C0809103018D
:10041000909104012091050130910601821B930BFC
:10042000909302018093010180910101909102015A
:1004300088589109909302018093010180910101F4
:1004400090910201892B11F417BC26C08091010103
:1004500090910201892B39F0809101019091020164
:10046000893E9105A0F08091010190910201893EA1
:10047000910538F08091010190910201813D9140F8
:1004800068F0209709F4AECF0E940000ABCF8091B6
:1004900001019091020187BD18BCF3CF17BC809178
:1004A000010190910201885E88BDEBCFF894FFCFE7
:107E0000112484B714BE81FFF0D085E080938100F7
:107E100082E08093C00088E18093C10086E0809377
:107E2000C20080E18093C4008EE0C9D0259A86E02C
:107E300020E33CEF91E0309385002093840096BBD3
:107E4000B09BFECF1D9AA8958150A9F7CC24DD24C4
:107E500088248394B5E0AB2EA1E19A2EF3E0BF2EE7
:107E6000A2D0813461F49FD0082FAFD0023811F036
:107E7000013811F484E001C083E08DD089C08234E0
:107E800011F484E103C0853419F485E0A6D080C0E4
:107E9000853579F488D0E82EFF2485D0082F10E0AE
:107EA000102F00270E291F29000F111F8ED06801E7
:107EB0006FC0863521F484E090D080E0DECF843638
:107EC00009F040C070D06FD0082F6DD080E0C81688
:107ED00080E7D80618F4F601B7BEE895C0E0D1E017
:107EE00062D089930C17E1F7F0E0CF16F0E7DF06D8
:107EF00018F0F601B7BEE89568D007B600FCFDCFD4
:107F0000A601A0E0B1E02C9130E011968C91119780
:107F100090E0982F8827822B932B1296FA010C0160
:107F200087BEE89511244E5F5F4FF1E0A038BF0790
:107F300051F7F601A7BEE89507B600FCFDCF97BE46
:107F4000E89526C08437B1F42ED02DD0F82E2BD052
:107F50003CD0F601EF2C8F010F5F1F4F84911BD097
:107F6000EA94F801C1F70894C11CD11CFA94CF0C13
:107F7000D11C0EC0853739F428D08EE10CD085E9AC
:107F80000AD08FE07ACF813511F488E018D01DD067
:107F900080E101D065CF982F8091C00085FFFCCF94
:107FA0009093C60008958091C00087FFFCCF809118
:107FB000C00084FD01C0A8958091C6000895E0E648
:107FC000F0E098E1908380830895EDDF803219F02E
:107FD00088E0F5DFFFCF84E1DECF1F93182FE3DFCA
:107FE0001150E9F7F2DF1F91089580E0E8DFEE27F6
:047FF000FF270994CA
:027FFE00040479
:0400000300007E007B
:00000001FF
