:100000000C9462000C948A000C948A000C948A0070
:100010000C948A000C948A000C948A000C948A0038
:100020000C948A000C948A000C948A000C948A0028
:100030000C948A000C948A000C948A000C948A0018
:100040000C94EF030C948A000C94BD030C9497035A
:100050000C948A000C948A000C948A000C948A00F8
:100060000C9439040C948A00000000002300260040
:10007000290000000008000201000003040700003E
:1000800000000000000000000000250028002B00F8
:1000900000000000240027002A00040404040404D3
:1000A0000404020202020202030303030303010227
:1000B00004081020408001020408102001020408F6
:1000C0001020670511241FBECFEFD8E0DEBFCDBFE3
:1000D00011E0A0E0B1E0E8EBFEE002C005900D9277
:1000E000AA34B107D9F722E0AAE4B1E001C01D9219
:1000F000A539B207E1F710E0C2E6D0E004C02197CD
:10010000FE010E944F07C136D107C9F70E94A00522
:100110000C945A070C940000E0916A01F0916B0175
:10012000309729F01092E0011092DF0109940895B0
:10013000CF93DF93AC01E091E701F091E8013097B4
:10014000F1F09091E2018091E1019817C0F090E008
:10015000292F30E02617370754F4D901A65BBE4F8C
:10016000EA01C20FD31F88818C939F5FF1CF109259
:10017000E2016093E101CB01DF91CF910994DF911E
:10018000CF910895CF92DF92EF92FF920F931F933A
:10019000CF93DF936C017A018B01C0E0D0E0CE15E4
:1001A000DF0589F0D8016D918D01D601ED91FC91AB
:1001B0000190F081E02DC6010995892B11F47E0193
:1001C00002C02196ECCFC701DF91CF911F910F9113
:1001D000FF90EF90DF90CF900895FC01538D448DF8
:1001E000252F30E0842F90E0821B930B541710F0E2
:1001F000CF96089501970895FC01918D828D9817EF
:1002000061F0828DDF01A80FB11D5D968C91928DFA
:100210009F5F9F73928F90E008958FEF9FEF0895F7
:10022000FC01918D828D981731F0828DE80FF11DC0
:10023000858D90E008958FEF9FEF0895FC01918DDB
:10024000228D892F90E0805C9F4F821B91098F73D4
:10025000992708958CEE91E00E941E0121E0892BE0
:1002600009F420E0822F0895FC01848DDF01A80F9E
:10027000B11DA35ABF4F2C91848D90E001968F73CE
:100280009927848FA689B7892C93A089B1898C91ED
:1002900080648C93938D848D981306C00288F389B3
:1002A000E02D80818F7D80830895EF92FF920F93E0
:1002B0001F93CF93DF93EC0181E0888F9B8D8C8D12
:1002C000981305C0E889F989808185FD24C0F62E40
:1002D0000B8D10E00F5F1F4F0F731127E02E8C8DD9
:1002E000E8120CC00FB607FCFACFE889F9898081C3
:1002F00085FFF5CFCE010E943401F1CF8B8DFE0139
:10030000E80FF11DE35AFF4FF0820B8FEA89FB895A
:100310008081806207C0EE89FF896083E889F9895E
:1003200080818064808381E090E0DF91CF911F9194
:100330000F91FF90EF900895CF93DF93EC01888D9C
:100340008823C9F0EA89FB89808185FD05C0A889D9
:10035000B9898C9186FD0FC00FB607FCF5CF80815F
:1003600085FFF2CFA889B9898C9185FFEDCFCE01A9
:100370000E943401E7CFDF91CF91089580E090E0B3
:10038000892B29F00E942A0181110C940000089504
:10039000833081F028F4813099F08230A1F0089503
:1003A0008730A9F08830B9F08430D1F48091800092
:1003B0008F7D03C0809180008F77809380000895A7
:1003C00084B58F7702C084B58F7D84BD08958091F8
:1003D000B0008F7703C08091B0008F7D8093B00014
:1003E00008951F93CF93DF93282F30E0F901EE5843
:1003F000FF4F8491F901E255FF4FD491F901E65680
:10040000FF4FC491CC23C9F0162F81110E94C8015F
:10041000EC2FF0E0EE0FFF1FEA57FF4FA591B491CC
:100420008FB7F894111105C09C91ED2FE095E92349
:1004300002C0EC91ED2BEC938FBFDF91CF911F9118
:1004400008953FB7F8948091D8019091D901A09177
:10045000DA01B091DB0126B5A89B05C02F3F19F04A
:100460000196A11DB11D3FBFBA2FA92F982F882734
:10047000820F911DA11DB11DBC01CD0142E0660F8F
:10048000771F881F991F4A95D1F708958F929F92E1
:10049000AF92BF92CF92DF92EF92FF926B017C01FD
:1004A0000E9421024B015C01C114D104E104F1045A
:1004B000F1F00E942102DC01CB0188199909AA09F7
:1004C000BB09883E9340A105B10570F321E0C21A33
:1004D000D108E108F10888EE880E83E0981EA11C7F
:1004E000B11CC114D104E104F10419F7DDCFFF9070
:1004F000EF90DF90CF90BF90AF909F908F90089536
:1005000085ED8093BC008091BC0084FDFCCF1092EF
:10051000DE01089540918C01262F30E0240F311D1B
:1005200021323105DCF42091DE012430C9F4FC01D4
:1005300080E090E0861758F430918C012191DC0125
:10054000A459BE4FA30FB11D2C930196F3CF8091F8
:100550008C01680F60938C0180E0089581E008951C
:1005600082E008950895E091E2018091E101E817A9
:1005700030F4F0E0E65BFE4F808190E008958FEF6D
:100580009FEF08959091E2018091E101981750F456
:10059000E92FF0E0E65BFE4F208130E09F5F909313
:1005A000E20102C02FEF3FEFC90108958091E10100
:1005B00090E02091E201821B91090895CF93DF938F
:1005C00000D0CDB7DEB7CB01642F49835A830E9498
:1005D0008A024981842F5A81952F0F900F90DF91C5
:1005E000CF910895CF93DF931F92CDB7DEB7698384
:1005F00061E0CE0101960E948A0281E090E00F90B6
:10060000DF91CF910895089580E090E00895CF9311
:10061000DF93029778F089E892E00E94C20280930B
:10062000E90189E892E00E94C2028093EA0181E038
:100630008093EB01E9E7F0E08491E5EBF0E0D49101
:10064000E1EAF0E0C491CC23A1F081110E94C8013D
:10065000EC2FF0E0EE0FFF1FE859FF4FA591B4918A
:10066000EC91ED2391E080E009F490E0692F782F80
:1006700002C060E070E081E0682787E0DF91CF9101
:100680000C94F101009769F0FC0101900020E9F75A
:100690003197AF01481B590BBC018CEE91E00C94D3
:1006A000C20080E090E008958F929F92AF92BF9237
:1006B0000F931F93CF93DF93CDB7DEB7A1970FB6FC
:1006C000F894DEBF0FBECDBF19A2423008F44AE055
:1006D0008E010F5D1F4F842E912CA12CB12CA501F2
:1006E00094010E942D07E62FB901CA01015011099A
:1006F000EA3014F4E05D01C0E95CD801EC93232BEF
:10070000242B252B61F7C8010E944203A1960FB646
:10071000F894DEBF0FBECDBFDF91CF911F910F9137
:10072000BF90AF909F908F9008950E9455071F92A1
:100730000F920FB60F9211242F933F934F935F9315
:100740006F937F938F939F93AF93BF93EF93FF9399
:100750008CEE91E00E943401FF91EF91BF91AF9137
:100760009F918F917F916F915F914F913F912F91C9
:100770000F900FBE0F901F9018951F920F920FB6FB
:100780000F9211242F938F939F93EF93FF93E091F8
:10079000FC01F091FD018081E0910202F0910302E1
:1007A00082FD12C09081809105028F5F8F7320912E
:1007B0000602821751F0E0910502F0E0E451FE4F8D
:1007C000958F8093050201C08081FF91EF919F91E9
:1007D0008F912F910F900FBE0F901F9018951F9221
:1007E0000F920FB60F9211242F933F938F939F93E5
:1007F000AF93BF938091D4019091D501A091D60180
:10080000B091D7013091D30123E0230F2D3720F48D
:100810000196A11DB11D05C026E8230F0296A11D5A
:10082000B11D2093D3018093D4019093D501A0935F
:10083000D601B093D7018091D8019091D901A091B0
:10084000DA01B091DB010196A11DB11D8093D801A1
:100850009093D901A093DA01B093DB01BF91AF91DE
:100860009F918F913F912F910F900FBE0F901F90EE
:1008700018951F920F920FB60F9211242F933F934A
:100880004F935F936F937F938F939F93AF93BF9398
:10089000EF93FF938091B900887F803609F49CC064
:1008A00068F5883209F45BC090F4803109F454C0D3
:1008B00038F4882309F4F6C0883009F44DC0F6C036
:1008C000883109F44CC0803209F45DC0EFC0803437
:1008D00009F468C048F4803309F455C0883309F03E
:1008E000E5C08093AF01D8C0803509F44FC088358A
:1008F00009F45DC0883409F0D9C0D6C0883909F43C
:10090000C7C0A8F4883709F467C038F4883609F4FA
:1009100063C0803709F460C0C9C0883809F4B8C022
:10092000803909F45FC0803809F0C0C05BC0803BEB
:1009300009F486C038F4803A09F466C0883A09F4AC
:100940007FC0B4C0803C09F4A7C0883C09F4A4C0AF
:10095000883B09F48AC0AAC08091D20110C090914E
:10096000D1018091D001981770F5E091D10181E01B
:100970008E0F8093D101F0E0E055FE4F808180938F
:10098000BB0085EC86C08093AF018EC0E091D101A1
:1009900081E08E0F8093D1018091BB00F0E0E055A3
:1009A000FE4F80839091D1018091D0016EC0E09183
:1009B000D10181E08E0F8093D1018091BB00F0E0E6
:1009C000E055FE4F80838091DD0181116DC081E093
:1009D0008093DC0184EA61C083E08093DE011092A1
:1009E000AE01CFCF8091AE01803208F051C0E091CE
:1009F000AE0181E08E0F8093AE018091BB00F0E0EC
:100A0000E257FE4F8083BDCF85EC8093BC001092EF
:100A1000DE018091AE01803230F4E091AE01F0E071
:100A2000E257FE4F10826091AE0170E0E091E30169
:100A3000F091E4018EE891E009951092AE0136C084
:100A400084E08093DE0110928D0110928C01E09180
:100A5000E501F091E601099580918C01811105C0B5
:100A600081E080938C0110926C01E0918D0181E016
:100A70008E0F80938D01F0E0E459FE4F80818093CA
:100A8000BB0090918D0180918C01981708F479CF6B
:100A900085E88093BC000AC085EC8093BC0010926E
:100AA000DE0104C01092AF010E948002FF91EF911D
:100AB000BF91AF919F918F917F916F915F914F9176
:100AC0003F912F910F900FBE0F901F901895ECEE55
:100AD000F1E01382128288EE93E0A0E0B0E084831C
:100AE0009583A683B78324E031E03183208325EC0E
:100AF00030E03587248724EC30E03787268720ECE8
:100B000030E0318B208B21EC30E0338B228B22ECD8
:100B100030E0358B248B26EC30E0378B268B118E22
:100B2000128E138E148EE9E8F2E01382128284830F
:100B30009583A683B78386E191E0918380830895AE
:100B4000789484B5826084BD84B5816084BD85B5A8
:100B5000826085BD85B5816085BD80916E008160B4
:100B600080936E001092810080918100826080935A
:100B7000810080918100816080938100809180005C
:100B80008160809380008091B10084608093B10087
:100B90008091B00081608093B00080917A00846081
:100BA00080937A0080917A00826080937A008091AD
:100BB0007A00816080937A0080917A0080688093C7
:100BC0007A001092C10081EA8093800091E09093B6
:100BD000810084B1866084B91092890010928800E7
:100BE00010928B0010928A0080EA8093BA002CE861
:100BF00030E03093E6012093E50128E930E03093BE
:100C0000E4012093E3011092E2011092E1011092BD
:100C1000E0011092DF011092DE019093DD0110924D
:100C2000DC0161E082E10E94F10161E083E10E9468
:100C3000F1018091B9008E7F8093B9008091B90055
:100C40008D7F8093B90088E48093B80085E4809319
:100C5000BC00E091FC01F091FD0182E08083E09115
:100C6000F801F091F9011082E091FA01F091FB0195
:100C70008FEC808310920402E0910002F091010257
:100C800086E08083E091FE01F091FF018081806128
:100C90008083E091FE01F091FF0180818860808374
:100CA000E091FE01F091FF01808180688083E091F6
:100CB000FE01F091FF0180818F7D808387E093E0CA
:100CC0009093E8018093E70184E291E00E9442035F
:100CD00040E160E570E080E090E00E94540386E32C
:100CE00091E00E944203E5EBF0E02491E1EAF0E0BC
:100CF0008491882399F090E0880F991FFC01E057B8
:100D0000FF4FA591B491FC01EA57FF4F8591949153
:100D10008FB7F894EC91E22BEC938FBF61E087E002
:100D20000E94F10160E570E080E090E00E944602E0
:100D300060E087E00E94F10160E570E080E090E013
:100D40000E94460261E087E00E94F10160E570E0E8
:100D500080E090E00E94460260E087E00E94F1019E
:100D600060E570E080E090E00E94460261E087E08C
:100D70000E94F10168EC70E080E090E00E94460281
:100D800060E087E00E94F10160E570E080E090E0C3
:100D90000E9446028091EB01882309F45BC089E33D
:100DA00091E00E944203C090E901D090EA010D2C2D
:100DB000000CEE08FF08F7FE14C0E091EC01F09182
:100DC000ED010190F081E02D6DE28CEE91E009954E
:100DD00066277727CB016C197D098E099F094AE0A8
:100DE00003C04AE0C701B6010E94540386E391E0C4
:100DF0000E9442038091E9019091EA0118161906B8
:100E00004CF48091E9019091EA01909389008093DC
:100E100088001AC08091E9019091EA0197FF10C003
:100E20008091E9019091EA019195819591099093C2
:100E30008B0080938A00109289001092880008C06D
:100E4000109289001092880010928B0010928A00F4
:100E50001092EB010E94BE019DCFA1E21A2EAA1BA7
:100E6000BB1BFD010DC0AA1FBB1FEE1FFF1FA2175A
:100E7000B307E407F50720F0A21BB30BE40BF50B57
:100E8000661F771F881F991F1A9469F760957095E0
:100E9000809590959B01AC01BD01CF010895EE0FA7
:100EA000FF1F0590F491E02D099481E090E0F89403
:080EB0000C945A07F894FFCFDF
:100EB800000000005501C200ED009C011E01FC006D
:100EC800100100000000F202DE020403B202D602A2
:100ED800C202B302484921204164647265737320D9
:100EE80069733A3078000D0A005265636569766562
:0A0EF8006420666F6F203D200000AB
:107E0000112484B714BE81FFF0D085E080938100F7
:107E100082E08093C00088E18093C10086E0809377
:107E2000C20080E18093C4008EE0C9D0259A86E02C
:107E300020E33CEF91E0309385002093840096BBD3
:107E4000B09BFECF1D9AA8958150A9F7CC24DD24C4
:107E500088248394B5E0AB2EA1E19A2EF3E0BF2EE7
:107E6000A2D0813461F49FD0082FAFD0023811F036
:107E7000013811F484E001C083E08DD089C08234E0
:107E800011F484E103C0853419F485E0A6D080C0E4
:107E9000853579F488D0E82EFF2485D0082F10E0AE
:107EA000102F00270E291F29000F111F8ED06801E7
:107EB0006FC0863521F484E090D080E0DECF843638
:107EC00009F040C070D06FD0082F6DD080E0C81688
:107ED00080E7D80618F4F601B7BEE895C0E0D1E017
:107EE00062D089930C17E1F7F0E0CF16F0E7DF06D8
:107EF00018F0F601B7BEE89568D007B600FCFDCFD4
:107F0000A601A0E0B1E02C9130E011968C91119780
:107F100090E0982F8827822B932B1296FA010C0160
:107F200087BEE89511244E5F5F4FF1E0A038BF0790
:107F300051F7F601A7BEE89507B600FCFDCF97BE46
:107F4000E89526C08437B1F42ED02DD0F82E2BD052
:107F50003CD0F601EF2C8F010F5F1F4F84911BD097
:107F6000EA94F801C1F70894C11CD11CFA94CF0C13
:107F7000D11C0EC0853739F428D08EE10CD085E9AC
:107F80000AD08FE07ACF813511F488E018D01DD067
:107F900080E101D065CF982F8091C00085FFFCCF94
:107FA0009093C60008958091C00087FFFCCF809118
:107FB000C00084FD01C0A8958091C6000895E0E648
:107FC000F0E098E1908380830895EDDF803219F02E
:107FD00088E0F5DFFFCF84E1DECF1F93182FE3DFCA
:107FE0001150E9F7F2DF1F91089580E0E8DFEE27F6
:047FF000FF270994CA
:027FFE00040479
:0400000300007E007B
:00000001FF
